{
  "contractName": "Web3",
  "abi": [
    {
      "anonymous": false,
      "inputs": [
        {
          "indexed": false,
          "internalType": "address",
          "name": "from",
          "type": "address"
        },
        {
          "indexed": false,
          "internalType": "address",
          "name": "receiver",
          "type": "address"
        },
        {
          "indexed": false,
          "internalType": "uint256",
          "name": "amount",
          "type": "uint256"
        },
        {
          "indexed": false,
          "internalType": "string",
          "name": "message",
          "type": "string"
        },
        {
          "indexed": false,
          "internalType": "uint256",
          "name": "timestamp",
          "type": "uint256"
        },
        {
          "indexed": false,
          "internalType": "string",
          "name": "keyword",
          "type": "string"
        }
      ],
      "name": "Transfer",
      "type": "event"
    },
    {
      "inputs": [
        {
          "internalType": "address payable",
          "name": "receiver",
          "type": "address"
        },
        {
          "internalType": "uint256",
          "name": "amount",
          "type": "uint256"
        },
        {
          "internalType": "string",
          "name": "message",
          "type": "string"
        },
        {
          "internalType": "string",
          "name": "keyword",
          "type": "string"
        }
      ],
      "name": "addToBlockchain",
      "outputs": [],
      "stateMutability": "payable",
      "type": "function",
      "payable": true
    },
    {
      "inputs": [],
      "name": "getAllTransactions",
      "outputs": [
        {
          "components": [
            {
              "internalType": "address",
              "name": "sender",
              "type": "address"
            },
            {
              "internalType": "address",
              "name": "receiver",
              "type": "address"
            },
            {
              "internalType": "uint256",
              "name": "amount",
              "type": "uint256"
            },
            {
              "internalType": "string",
              "name": "message",
              "type": "string"
            },
            {
              "internalType": "uint256",
              "name": "timestamp",
              "type": "uint256"
            },
            {
              "internalType": "string",
              "name": "keyword",
              "type": "string"
            }
          ],
          "internalType": "struct Web3.TransferStruct[]",
          "name": "",
          "type": "tuple[]"
        }
      ],
      "stateMutability": "view",
      "type": "function",
      "constant": true
    },
    {
      "inputs": [],
      "name": "getAllTransactionCount",
      "outputs": [
        {
          "internalType": "uint256",
          "name": "",
          "type": "uint256"
        }
      ],
      "stateMutability": "view",
      "type": "function",
      "constant": true
    }
  ],
  "bytecode": "0x608060405234801561001057600080fd5b50610f34806100206000396000f3fe6080604052600436106100345760003560e01c806327506f53146100395780635e4e252014610064578063cc2d7ead1461008f575b600080fd5b34801561004557600080fd5b5061004e6100ab565b60405161005b9190610770565b60405180910390f35b34801561007057600080fd5b506100796102ee565b60405161008691906107a1565b60405180910390f35b6100a960048036038101906100a4919061096f565b6102f7565b005b60606001805480602002602001604051908101604052809291908181526020016000905b828210156102e557838290600052602060002090600602016040518060c00160405290816000820160009054906101000a900473ffffffffffffffffffffffffffffffffffffffff1673ffffffffffffffffffffffffffffffffffffffff1673ffffffffffffffffffffffffffffffffffffffff1681526020016001820160009054906101000a900473ffffffffffffffffffffffffffffffffffffffff1673ffffffffffffffffffffffffffffffffffffffff1673ffffffffffffffffffffffffffffffffffffffff168152602001600282015481526020016003820180546101b890610a3d565b80601f01602080910402602001604051908101604052809291908181526020018280546101e490610a3d565b80156102315780601f1061020657610100808354040283529160200191610231565b820191906000526020600020905b81548152906001019060200180831161021457829003601f168201915b505050505081526020016004820154815260200160058201805461025490610a3d565b80601f016020809104026020016040519081016040528092919081815260200182805461028090610a3d565b80156102cd5780601f106102a2576101008083540402835291602001916102cd565b820191906000526020600020905b8154815290600101906020018083116102b057829003601f168201915b505050505081525050815260200190600101906100cf565b50505050905090565b60008054905090565b823414610339576040517f08c379a000000000000000000000000000000000000000000000000000000000815260040161033090610af1565b60405180910390fd5b8373ffffffffffffffffffffffffffffffffffffffff166108fc349081150290604051600060405180830381858888f1935050505015801561037f573d6000803e3d6000fd5b5060016000808282546103929190610b40565b9250508190555060016040518060c001604052803373ffffffffffffffffffffffffffffffffffffffff1681526020018673ffffffffffffffffffffffffffffffffffffffff16815260200185815260200184815260200142815260200183815250908060018154018082558091505060019003906000526020600020906006020160009091909190915060008201518160000160006101000a81548173ffffffffffffffffffffffffffffffffffffffff021916908373ffffffffffffffffffffffffffffffffffffffff16021790555060208201518160010160006101000a81548173ffffffffffffffffffffffffffffffffffffffff021916908373ffffffffffffffffffffffffffffffffffffffff1602179055506040820151816002015560608201518160030190816104ca9190610d20565b506080820151816004015560a08201518160050190816104ea9190610d20565b5050507f416cfa4330a4565f45c2fd2dd4826a83a37443aba2ce6f79477c7355afac35fa33858585428660405161052696959493929190610e8f565b60405180910390a150505050565b600081519050919050565b600082825260208201905092915050565b6000819050602082019050919050565b600073ffffffffffffffffffffffffffffffffffffffff82169050919050565b600061058b82610560565b9050919050565b61059b81610580565b82525050565b6000819050919050565b6105b4816105a1565b82525050565b600081519050919050565b600082825260208201905092915050565b60005b838110156105f45780820151818401526020810190506105d9565b60008484015250505050565b6000601f19601f8301169050919050565b600061061c826105ba565b61062681856105c5565b93506106368185602086016105d6565b61063f81610600565b840191505092915050565b600060c0830160008301516106626000860182610592565b5060208301516106756020860182610592565b50604083015161068860408601826105ab565b50606083015184820360608601526106a08282610611565b91505060808301516106b560808601826105ab565b5060a083015184820360a08601526106cd8282610611565b9150508091505092915050565b60006106e6838361064a565b905092915050565b6000602082019050919050565b600061070682610534565b610710818561053f565b93508360208202850161072285610550565b8060005b8581101561075e578484038952815161073f85826106da565b945061074a836106ee565b925060208a01995050600181019050610726565b50829750879550505050505092915050565b6000602082019050818103600083015261078a81846106fb565b905092915050565b61079b816105a1565b82525050565b60006020820190506107b66000830184610792565b92915050565b6000604051905090565b600080fd5b600080fd5b60006107db82610560565b9050919050565b6107eb816107d0565b81146107f657600080fd5b50565b600081359050610808816107e2565b92915050565b610817816105a1565b811461082257600080fd5b50565b6000813590506108348161080e565b92915050565b600080fd5b600080fd5b7f4e487b7100000000000000000000000000000000000000000000000000000000600052604160045260246000fd5b61087c82610600565b810181811067ffffffffffffffff8211171561089b5761089a610844565b5b80604052505050565b60006108ae6107bc565b90506108ba8282610873565b919050565b600067ffffffffffffffff8211156108da576108d9610844565b5b6108e382610600565b9050602081019050919050565b82818337600083830152505050565b600061091261090d846108bf565b6108a4565b90508281526020810184848401111561092e5761092d61083f565b5b6109398482856108f0565b509392505050565b600082601f8301126109565761095561083a565b5b81356109668482602086016108ff565b91505092915050565b60008060008060808587031215610989576109886107c6565b5b6000610997878288016107f9565b94505060206109a887828801610825565b935050604085013567ffffffffffffffff8111156109c9576109c86107cb565b5b6109d587828801610941565b925050606085013567ffffffffffffffff8111156109f6576109f56107cb565b5b610a0287828801610941565b91505092959194509250565b7f4e487b7100000000000000000000000000000000000000000000000000000000600052602260045260246000fd5b60006002820490506001821680610a5557607f821691505b602082108103610a6857610a67610a0e565b5b50919050565b600082825260208201905092915050565b7f53656e742076616c7565206d757374206d6174636820746865207472616e736160008201527f6374696f6e20616d6f756e740000000000000000000000000000000000000000602082015250565b6000610adb602c83610a6e565b9150610ae682610a7f565b604082019050919050565b60006020820190508181036000830152610b0a81610ace565b9050919050565b7f4e487b7100000000000000000000000000000000000000000000000000000000600052601160045260246000fd5b6000610b4b826105a1565b9150610b56836105a1565b9250828201905080821115610b6e57610b6d610b11565b5b92915050565b60008190508160005260206000209050919050565b60006020601f8301049050919050565b600082821b905092915050565b600060088302610bd67fffffffffffffffffffffffffffffffffffffffffffffffffffffffffffffffff82610b99565b610be08683610b99565b95508019841693508086168417925050509392505050565b6000819050919050565b6000610c1d610c18610c13846105a1565b610bf8565b6105a1565b9050919050565b6000819050919050565b610c3783610c02565b610c4b610c4382610c24565b848454610ba6565b825550505050565b600090565b610c60610c53565b610c6b818484610c2e565b505050565b5b81811015610c8f57610c84600082610c58565b600181019050610c71565b5050565b601f821115610cd457610ca581610b74565b610cae84610b89565b81016020851015610cbd578190505b610cd1610cc985610b89565b830182610c70565b50505b505050565b600082821c905092915050565b6000610cf760001984600802610cd9565b1980831691505092915050565b6000610d108383610ce6565b9150826002028217905092915050565b610d29826105ba565b67ffffffffffffffff811115610d4257610d41610844565b5b610d4c8254610a3d565b610d57828285610c93565b600060209050601f831160018114610d8a5760008415610d78578287015190505b610d828582610d04565b865550610dea565b601f198416610d9886610b74565b60005b82811015610dc057848901518255600182019150602085019450602081019050610d9b565b86831015610ddd5784890151610dd9601f891682610ce6565b8355505b6001600288020188555050505b505050505050565b610dfb81610580565b82525050565b6000610e1c610e17610e1284610560565b610bf8565b610560565b9050919050565b6000610e2e82610e01565b9050919050565b6000610e4082610e23565b9050919050565b610e5081610e35565b82525050565b6000610e61826105ba565b610e6b8185610a6e565b9350610e7b8185602086016105d6565b610e8481610600565b840191505092915050565b600060c082019050610ea46000830189610df2565b610eb16020830188610e47565b610ebe6040830187610792565b8181036060830152610ed08186610e56565b9050610edf6080830185610792565b81810360a0830152610ef18184610e56565b905097965050505050505056fea2646970667358221220a7807a11ea3a8e45ce5cf044806e921a5f871bd49daa0d3cd5dccbb2aae71b8f64736f6c63430008150033",
  "immutableReferences": {},
  "source": "//SPDX-License-Identifier: MIT\r\n\r\npragma solidity ^0.8.0;\r\n\r\ncontract Web3 {\r\n    uint256 transactionCount;\r\n\r\n    event Transfer(address from, address receiver, uint256 amount, string message, uint256 timestamp, string keyword);\r\n\r\n    struct TransferStruct{\r\n        address sender;\r\n        address receiver;\r\n        uint256 amount;\r\n        string message;\r\n        uint256 timestamp;\r\n        string keyword;\r\n    }\r\n\r\n    TransferStruct[] transactions;\r\n\r\n    function addToBlockchain(address payable receiver, uint256 amount, string memory message, string memory keyword) public payable {\r\n        require(msg.value == amount, \"Sent value must match the transaction amount\");\r\n        receiver.transfer(msg.value);\r\n        transactionCount += 1;\r\n        transactions.push(TransferStruct(msg.sender, receiver, amount, message, block.timestamp, keyword));\r\n\r\n        emit Transfer(msg.sender, receiver, amount, message, block.timestamp, keyword);\r\n    }\r\n\r\n    function getAllTransactions() public view returns (TransferStruct[] memory) {\r\n        return transactions;\r\n\r\n    }\r\n\r\n    function getAllTransactionCount() public view returns (uint256) {\r\n        return transactionCount;\r\n\r\n    }\r\n}\r\n",
  "sourcePath": "D:\\Users\\Lenovo\\Documents\\rugs\\web\\smart_contract\\contracts\\Web3.sol",
  "compiler": {
    "name": "solc",
    "version": "0.8.21+commit.d9974bed.Emscripten.clang"
  },
  "schemaVersion": "3.4.16",
  "updatedAt": "2025-01-10T09:02:32.188Z",
  "networkType": "ethereum",
  "devdoc": {
    "kind": "dev",
    "methods": {},
    "version": 1
  },
  "userdoc": {
    "kind": "user",
    "methods": {},
    "version": 1
  }
}