{
  "contractName": "Web3",
  "abi": [
    {
      "anonymous": false,
      "inputs": [
        {
          "indexed": false,
          "internalType": "address",
          "name": "from",
          "type": "address"
        },
        {
          "indexed": false,
          "internalType": "address",
          "name": "receiver",
          "type": "address"
        },
        {
          "indexed": false,
          "internalType": "uint256",
          "name": "amount",
          "type": "uint256"
        },
        {
          "indexed": false,
          "internalType": "string",
          "name": "message",
          "type": "string"
        },
        {
          "indexed": false,
          "internalType": "uint256",
          "name": "timestamp",
          "type": "uint256"
        },
        {
          "indexed": false,
          "internalType": "string",
          "name": "keyword",
          "type": "string"
        }
      ],
      "name": "Transfer",
      "type": "event"
    },
    {
      "inputs": [
        {
          "internalType": "address payable",
          "name": "receiver",
          "type": "address"
        },
        {
          "internalType": "uint256",
          "name": "amount",
          "type": "uint256"
        },
        {
          "internalType": "string",
          "name": "message",
          "type": "string"
        },
        {
          "internalType": "string",
          "name": "keyword",
          "type": "string"
        }
      ],
      "name": "addToBlockchain",
      "outputs": [],
      "stateMutability": "payable",
      "type": "function",
      "payable": true
    },
    {
      "inputs": [],
      "name": "getAllTransactions",
      "outputs": [
        {
          "components": [
            {
              "internalType": "address",
              "name": "sender",
              "type": "address"
            },
            {
              "internalType": "address",
              "name": "receiver",
              "type": "address"
            },
            {
              "internalType": "uint256",
              "name": "amount",
              "type": "uint256"
            },
            {
              "internalType": "string",
              "name": "message",
              "type": "string"
            },
            {
              "internalType": "uint256",
              "name": "timestamp",
              "type": "uint256"
            },
            {
              "internalType": "string",
              "name": "keyword",
              "type": "string"
            }
          ],
          "internalType": "struct Web3.TransferStruct[]",
          "name": "",
          "type": "tuple[]"
        }
      ],
      "stateMutability": "view",
      "type": "function",
      "constant": true
    },
    {
      "inputs": [],
      "name": "getAllTransactionCount",
      "outputs": [
        {
          "internalType": "uint256",
          "name": "",
          "type": "uint256"
        }
      ],
      "stateMutability": "view",
      "type": "function",
      "constant": true
    }
  ],
  "bytecode": "0x608060405234801561001057600080fd5b50610f57806100206000396000f3fe608060405260043610610051576000357c01000000000000000000000000000000000000000000000000000000009004806327506f53146100565780635e4e252014610081578063cc2d7ead146100ac575b600080fd5b34801561006257600080fd5b5061006b6100c8565b604051610078919061078d565b60405180910390f35b34801561008d57600080fd5b5061009661030b565b6040516100a391906107be565b60405180910390f35b6100c660048036038101906100c1919061098c565b610314565b005b60606001805480602002602001604051908101604052809291908181526020016000905b8282101561030257838290600052602060002090600602016040518060c00160405290816000820160009054906101000a900473ffffffffffffffffffffffffffffffffffffffff1673ffffffffffffffffffffffffffffffffffffffff1673ffffffffffffffffffffffffffffffffffffffff1681526020016001820160009054906101000a900473ffffffffffffffffffffffffffffffffffffffff1673ffffffffffffffffffffffffffffffffffffffff1673ffffffffffffffffffffffffffffffffffffffff168152602001600282015481526020016003820180546101d590610a5a565b80601f016020809104026020016040519081016040528092919081815260200182805461020190610a5a565b801561024e5780601f106102235761010080835404028352916020019161024e565b820191906000526020600020905b81548152906001019060200180831161023157829003601f168201915b505050505081526020016004820154815260200160058201805461027190610a5a565b80601f016020809104026020016040519081016040528092919081815260200182805461029d90610a5a565b80156102ea5780601f106102bf576101008083540402835291602001916102ea565b820191906000526020600020905b8154815290600101906020018083116102cd57829003601f168201915b505050505081525050815260200190600101906100ec565b50505050905090565b60008054905090565b823414610356576040517f08c379a000000000000000000000000000000000000000000000000000000000815260040161034d90610b0e565b60405180910390fd5b8373ffffffffffffffffffffffffffffffffffffffff166108fc349081150290604051600060405180830381858888f1935050505015801561039c573d6000803e3d6000fd5b5060016000808282546103af9190610b5d565b9250508190555060016040518060c001604052803373ffffffffffffffffffffffffffffffffffffffff1681526020018673ffffffffffffffffffffffffffffffffffffffff16815260200185815260200184815260200142815260200183815250908060018154018082558091505060019003906000526020600020906006020160009091909190915060008201518160000160006101000a81548173ffffffffffffffffffffffffffffffffffffffff021916908373ffffffffffffffffffffffffffffffffffffffff16021790555060208201518160010160006101000a81548173ffffffffffffffffffffffffffffffffffffffff021916908373ffffffffffffffffffffffffffffffffffffffff1602179055506040820151816002015560608201518160030190816104e79190610d43565b506080820151816004015560a08201518160050190816105079190610d43565b5050507f416cfa4330a4565f45c2fd2dd4826a83a37443aba2ce6f79477c7355afac35fa33858585428660405161054396959493929190610eb2565b60405180910390a150505050565b600081519050919050565b600082825260208201905092915050565b6000819050602082019050919050565b600073ffffffffffffffffffffffffffffffffffffffff82169050919050565b60006105a88261057d565b9050919050565b6105b88161059d565b82525050565b6000819050919050565b6105d1816105be565b82525050565b600081519050919050565b600082825260208201905092915050565b60005b838110156106115780820151818401526020810190506105f6565b60008484015250505050565b6000601f19601f8301169050919050565b6000610639826105d7565b61064381856105e2565b93506106538185602086016105f3565b61065c8161061d565b840191505092915050565b600060c08301600083015161067f60008601826105af565b50602083015161069260208601826105af565b5060408301516106a560408601826105c8565b50606083015184820360608601526106bd828261062e565b91505060808301516106d260808601826105c8565b5060a083015184820360a08601526106ea828261062e565b9150508091505092915050565b60006107038383610667565b905092915050565b6000602082019050919050565b600061072382610551565b61072d818561055c565b93508360208202850161073f8561056d565b8060005b8581101561077b578484038952815161075c85826106f7565b94506107678361070b565b925060208a01995050600181019050610743565b50829750879550505050505092915050565b600060208201905081810360008301526107a78184610718565b905092915050565b6107b8816105be565b82525050565b60006020820190506107d360008301846107af565b92915050565b6000604051905090565b600080fd5b600080fd5b60006107f88261057d565b9050919050565b610808816107ed565b811461081357600080fd5b50565b600081359050610825816107ff565b92915050565b610834816105be565b811461083f57600080fd5b50565b6000813590506108518161082b565b92915050565b600080fd5b600080fd5b7f4e487b7100000000000000000000000000000000000000000000000000000000600052604160045260246000fd5b6108998261061d565b810181811067ffffffffffffffff821117156108b8576108b7610861565b5b80604052505050565b60006108cb6107d9565b90506108d78282610890565b919050565b600067ffffffffffffffff8211156108f7576108f6610861565b5b6109008261061d565b9050602081019050919050565b82818337600083830152505050565b600061092f61092a846108dc565b6108c1565b90508281526020810184848401111561094b5761094a61085c565b5b61095684828561090d565b509392505050565b600082601f83011261097357610972610857565b5b813561098384826020860161091c565b91505092915050565b600080600080608085870312156109a6576109a56107e3565b5b60006109b487828801610816565b94505060206109c587828801610842565b935050604085013567ffffffffffffffff8111156109e6576109e56107e8565b5b6109f28782880161095e565b925050606085013567ffffffffffffffff811115610a1357610a126107e8565b5b610a1f8782880161095e565b91505092959194509250565b7f4e487b7100000000000000000000000000000000000000000000000000000000600052602260045260246000fd5b60006002820490506001821680610a7257607f821691505b602082108103610a8557610a84610a2b565b5b50919050565b600082825260208201905092915050565b7f53656e742076616c7565206d757374206d6174636820746865207472616e736160008201527f6374696f6e20616d6f756e740000000000000000000000000000000000000000602082015250565b6000610af8602c83610a8b565b9150610b0382610a9c565b604082019050919050565b60006020820190508181036000830152610b2781610aeb565b9050919050565b7f4e487b7100000000000000000000000000000000000000000000000000000000600052601160045260246000fd5b6000610b68826105be565b9150610b73836105be565b9250828201905080821115610b8b57610b8a610b2e565b5b92915050565b60008190508160005260206000209050919050565b60006020601f8301049050919050565b60008160020a8302905092915050565b600060088302610bf67fffffffffffffffffffffffffffffffffffffffffffffffffffffffffffffffff82610bb6565b610c008683610bb6565b95508019841693508086168417925050509392505050565b6000819050919050565b6000610c3d610c38610c33846105be565b610c18565b6105be565b9050919050565b6000819050919050565b610c5783610c22565b610c6b610c6382610c44565b848454610bc6565b825550505050565b600090565b610c80610c73565b610c8b818484610c4e565b505050565b5b81811015610caf57610ca4600082610c78565b600181019050610c91565b5050565b601f821115610cf457610cc581610b91565b610cce84610ba6565b81016020851015610cdd578190505b610cf1610ce985610ba6565b830182610c90565b50505b505050565b60008160020a8304905092915050565b6000610d1a60001984600802610cf9565b1980831691505092915050565b6000610d338383610d09565b9150826002028217905092915050565b610d4c826105d7565b67ffffffffffffffff811115610d6557610d64610861565b5b610d6f8254610a5a565b610d7a828285610cb3565b600060209050601f831160018114610dad5760008415610d9b578287015190505b610da58582610d27565b865550610e0d565b601f198416610dbb86610b91565b60005b82811015610de357848901518255600182019150602085019450602081019050610dbe565b86831015610e005784890151610dfc601f891682610d09565b8355505b6001600288020188555050505b505050505050565b610e1e8161059d565b82525050565b6000610e3f610e3a610e358461057d565b610c18565b61057d565b9050919050565b6000610e5182610e24565b9050919050565b6000610e6382610e46565b9050919050565b610e7381610e58565b82525050565b6000610e84826105d7565b610e8e8185610a8b565b9350610e9e8185602086016105f3565b610ea78161061d565b840191505092915050565b600060c082019050610ec76000830189610e15565b610ed46020830188610e6a565b610ee160408301876107af565b8181036060830152610ef38186610e79565b9050610f0260808301856107af565b81810360a0830152610f148184610e79565b905097965050505050505056fea264697066735822122080ec5b7ca2e5266ad3db4795d29a20d0f1bc31536d8ab7d70192154b5eb4f87c64736f6c63430008150033",
  "immutableReferences": {},
  "source": "//SPDX-License-Identifier: MIT\r\n\r\npragma solidity ^0.8.0;\r\n\r\ncontract Web3 {\r\n    uint256 transactionCount;\r\n\r\n    event Transfer(address from, address receiver, uint amount, string message, uint256 timestamp, string keyword);\r\n\r\n    struct TransferStruct{\r\n        address sender;\r\n        address receiver;\r\n        uint256 amount;\r\n        string message;\r\n        uint256 timestamp;\r\n        string keyword;\r\n    }\r\n\r\n    TransferStruct[] transactions;\r\n\r\n    function addToBlockchain(address payable receiver, uint256 amount, string memory message, string memory keyword) public payable {\r\n        require(msg.value == amount, \"Sent value must match the transaction amount\");\r\n        receiver.transfer(msg.value);\r\n        transactionCount += 1;\r\n        transactions.push(TransferStruct(msg.sender, receiver, amount, message, block.timestamp, keyword));\r\n\r\n        emit Transfer(msg.sender, receiver, amount, message, block.timestamp, keyword);\r\n\r\n    }\r\n\r\n    function getAllTransactions() public view returns (TransferStruct[] memory) {\r\n        return transactions;\r\n\r\n    }\r\n\r\n    function getAllTransactionCount() public view returns (uint256) {\r\n        return transactionCount;\r\n\r\n    }\r\n}\r\n",
  "sourcePath": "D:\\Users\\Lenovo\\Documents\\rugs\\web\\smart_contract\\contracts\\Web3.sol",
  "compiler": {
    "name": "solc",
    "version": "0.8.21+commit.d9974bed.Emscripten.clang"
  },
  "schemaVersion": "3.4.16",
  "updatedAt": "2024-12-25T09:32:55.699Z",
  "networkType": "ethereum",
  "devdoc": {
    "kind": "dev",
    "methods": {},
    "version": 1
  },
  "userdoc": {
    "kind": "user",
    "methods": {},
    "version": 1
  }
}